{
  "contractName": "HtlcBond",
  "abi": [
    {
      "inputs": [],
      "stateMutability": "nonpayable",
      "type": "constructor"
    },
    {
      "anonymous": false,
      "inputs": [
        {
          "indexed": false,
          "internalType": "string",
          "name": "",
          "type": "string"
        }
      ],
      "name": "initiateHtlc",
      "type": "event"
    },
    {
      "anonymous": false,
      "inputs": [
        {
          "indexed": false,
          "internalType": "uint256",
          "name": "",
          "type": "uint256"
        }
      ],
      "name": "withdrawAmount",
      "type": "event"
    },
    {
      "inputs": [
        {
          "internalType": "address",
          "name": "receiver",
          "type": "address"
        },
        {
          "internalType": "bytes32",
          "name": "hash",
          "type": "bytes32"
        },
        {
          "internalType": "uint256",
          "name": "timeoutPeriod",
          "type": "uint256"
        }
      ],
      "name": "createHtlc",
      "outputs": [],
      "stateMutability": "payable",
      "type": "function",
      "payable": true
    },
    {
      "inputs": [
        {
          "internalType": "string",
          "name": "secret",
          "type": "string"
        }
      ],
      "name": "withdraw",
      "outputs": [],
      "stateMutability": "payable",
      "type": "function",
      "payable": true
    },
    {
      "inputs": [],
      "name": "refund",
      "outputs": [],
      "stateMutability": "payable",
      "type": "function",
      "payable": true
    },
    {
      "inputs": [],
      "name": "getContractBalance",
      "outputs": [
        {
          "internalType": "uint256",
          "name": "",
          "type": "uint256"
        }
      ],
      "stateMutability": "view",
      "type": "function",
      "constant": true
    },
    {
      "inputs": [],
      "name": "pendingPartyToWithdraw",
      "outputs": [
        {
          "internalType": "address",
          "name": "",
          "type": "address"
        }
      ],
      "stateMutability": "view",
      "type": "function",
      "constant": true
    },
    {
      "inputs": [],
      "name": "pendingReceiveFrom",
      "outputs": [
        {
          "internalType": "address",
          "name": "",
          "type": "address"
        }
      ],
      "stateMutability": "view",
      "type": "function",
      "constant": true
    }
  ],
  "bytecode": "0x608060405234801561001057600080fd5b50611946806100206000396000f3fe6080604052600436106100555760003560e01c806331fb67c21461005a578063590e1ae31461007657806363c524b0146100805780636f9fb98a1461009c578063e64c9c7b146100c7578063f1492877146100f2575b600080fd5b610074600480360381019061006f9190611191565b61011d565b005b61007e61063a565b005b61009a600480360381019061009591906112a4565b610a6f565b005b3480156100a857600080fd5b506100b1610e75565b6040516100be9190611306565b60405180910390f35b3480156100d357600080fd5b506100dc610e7d565b6040516100e99190611330565b60405180910390f35b3480156100fe57600080fd5b50610107610ee3565b6040516101149190611330565b60405180910390f35b6000600160003373ffffffffffffffffffffffffffffffffffffffff1673ffffffffffffffffffffffffffffffffffffffff1681526020019081526020016000209050600073ffffffffffffffffffffffffffffffffffffffff168160000160009054906101000a900473ffffffffffffffffffffffffffffffffffffffff1673ffffffffffffffffffffffffffffffffffffffff16036101f3576040517f08c379a00000000000000000000000000000000000000000000000000000000081526004016101ea906113a8565b60405180910390fd5b80600401544210610239576040517f08c379a00000000000000000000000000000000000000000000000000000000081526004016102309061143a565b60405180910390fd5b60008260405160200161024c91906114d4565b6040516020818303038152906040528051906020012090506000826002015490508082146102af576040517f08c379a00000000000000000000000000000000000000000000000000000000081526004016102a690611537565b60405180910390fd5b3373ffffffffffffffffffffffffffffffffffffffff166108fc84600501549081150290604051600060405180830381858888f193505050501580156102f9573d6000803e3d6000fd5b507f0562b9f77fa79f308f8168da958d45b72884a619caa9a0cec1d44fb2949dad0c836005015460405161032d9190611306565b60405180910390a16000808460000160009054906101000a900473ffffffffffffffffffffffffffffffffffffffff1673ffffffffffffffffffffffffffffffffffffffff1673ffffffffffffffffffffffffffffffffffffffff16815260200190815260200160002060006101000a81549073ffffffffffffffffffffffffffffffffffffffff0219169055600073ffffffffffffffffffffffffffffffffffffffff166000808560000160009054906101000a900473ffffffffffffffffffffffffffffffffffffffff1673ffffffffffffffffffffffffffffffffffffffff1673ffffffffffffffffffffffffffffffffffffffff16815260200190815260200160002060009054906101000a900473ffffffffffffffffffffffffffffffffffffffff1673ffffffffffffffffffffffffffffffffffffffff16146104ab576040517f08c379a00000000000000000000000000000000000000000000000000000000081526004016104a2906115a3565b60405180910390fd5b600160003373ffffffffffffffffffffffffffffffffffffffff1673ffffffffffffffffffffffffffffffffffffffff168152602001908152602001600020600080820160006101000a81549073ffffffffffffffffffffffffffffffffffffffff02191690556001820160006101000a81549073ffffffffffffffffffffffffffffffffffffffff021916905560028201600090556003820160006105519190610f4d565b600482016000905560058201600090555050600073ffffffffffffffffffffffffffffffffffffffff16600160003373ffffffffffffffffffffffffffffffffffffffff1673ffffffffffffffffffffffffffffffffffffffff16815260200190815260200160002060000160009054906101000a900473ffffffffffffffffffffffffffffffffffffffff1673ffffffffffffffffffffffffffffffffffffffff1614610634576040517f08c379a000000000000000000000000000000000000000000000000000000000815260040161062b9061160f565b60405180910390fd5b50505050565b6000600160008060003373ffffffffffffffffffffffffffffffffffffffff1673ffffffffffffffffffffffffffffffffffffffff16815260200190815260200160002060009054906101000a900473ffffffffffffffffffffffffffffffffffffffff1673ffffffffffffffffffffffffffffffffffffffff1673ffffffffffffffffffffffffffffffffffffffff16815260200190815260200160002090508060040154421015610722576040517f08c379a0000000000000000000000000000000000000000000000000000000008152600401610719906116a1565b60405180910390fd5b3373ffffffffffffffffffffffffffffffffffffffff166108fc82600501549081150290604051600060405180830381858888f1935050505015801561076c573d6000803e3d6000fd5b506000803373ffffffffffffffffffffffffffffffffffffffff1673ffffffffffffffffffffffffffffffffffffffff16815260200190815260200160002060006101000a81549073ffffffffffffffffffffffffffffffffffffffff0219169055600073ffffffffffffffffffffffffffffffffffffffff166000803373ffffffffffffffffffffffffffffffffffffffff1673ffffffffffffffffffffffffffffffffffffffff16815260200190815260200160002060009054906101000a900473ffffffffffffffffffffffffffffffffffffffff1673ffffffffffffffffffffffffffffffffffffffff161461089b576040517f08c379a0000000000000000000000000000000000000000000000000000000008152600401610892906115a3565b60405180910390fd5b600160008260010160009054906101000a900473ffffffffffffffffffffffffffffffffffffffff1673ffffffffffffffffffffffffffffffffffffffff1673ffffffffffffffffffffffffffffffffffffffff168152602001908152602001600020600080820160006101000a81549073ffffffffffffffffffffffffffffffffffffffff02191690556001820160006101000a81549073ffffffffffffffffffffffffffffffffffffffff021916905560028201600090556003820160006109659190610f4d565b600482016000905560058201600090555050600073ffffffffffffffffffffffffffffffffffffffff16600160008360010160009054906101000a900473ffffffffffffffffffffffffffffffffffffffff1673ffffffffffffffffffffffffffffffffffffffff1673ffffffffffffffffffffffffffffffffffffffff16815260200190815260200160002060000160009054906101000a900473ffffffffffffffffffffffffffffffffffffffff1673ffffffffffffffffffffffffffffffffffffffff1614610a6c576040517f08c379a0000000000000000000000000000000000000000000000000000000008152600401610a639061160f565b60405180910390fd5b50565b600073ffffffffffffffffffffffffffffffffffffffff166000803373ffffffffffffffffffffffffffffffffffffffff1673ffffffffffffffffffffffffffffffffffffffff16815260200190815260200160002060009054906101000a900473ffffffffffffffffffffffffffffffffffffffff1673ffffffffffffffffffffffffffffffffffffffff1614610b3c576040517f08c379a0000000000000000000000000000000000000000000000000000000008152600401610b3390611733565b60405180910390fd5b60003411610b7f576040517f08c379a0000000000000000000000000000000000000000000000000000000008152600401610b769061179f565b60405180910390fd5b6000600160008573ffffffffffffffffffffffffffffffffffffffff1673ffffffffffffffffffffffffffffffffffffffff1681526020019081526020016000209050338160000160006101000a81548173ffffffffffffffffffffffffffffffffffffffff021916908373ffffffffffffffffffffffffffffffffffffffff160217905550838160010160006101000a81548173ffffffffffffffffffffffffffffffffffffffff021916908373ffffffffffffffffffffffffffffffffffffffff1602179055508281600201819055508142610c5d91906117ee565b816004018190555034816005018190555080600160008673ffffffffffffffffffffffffffffffffffffffff1673ffffffffffffffffffffffffffffffffffffffff1681526020019081526020016000206000820160009054906101000a900473ffffffffffffffffffffffffffffffffffffffff168160000160006101000a81548173ffffffffffffffffffffffffffffffffffffffff021916908373ffffffffffffffffffffffffffffffffffffffff1602179055506001820160009054906101000a900473ffffffffffffffffffffffffffffffffffffffff168160010160006101000a81548173ffffffffffffffffffffffffffffffffffffffff021916908373ffffffffffffffffffffffffffffffffffffffff160217905550600282015481600201556003820181600301908054610d9a90611873565b610da5929190610f8d565b506004820154816004015560058201548160050155905050836000803373ffffffffffffffffffffffffffffffffffffffff1673ffffffffffffffffffffffffffffffffffffffff16815260200190815260200160002060006101000a81548173ffffffffffffffffffffffffffffffffffffffff021916908373ffffffffffffffffffffffffffffffffffffffff1602179055507f5b6c2c10b09c86a045760ec04989262edffb540c38764eb612db700d49c176c3604051610e67906118f0565b60405180910390a150505050565b600047905090565b60008060003373ffffffffffffffffffffffffffffffffffffffff1673ffffffffffffffffffffffffffffffffffffffff16815260200190815260200160002060009054906101000a900473ffffffffffffffffffffffffffffffffffffffff16905090565b6000600160003373ffffffffffffffffffffffffffffffffffffffff1673ffffffffffffffffffffffffffffffffffffffff16815260200190815260200160002060000160009054906101000a900473ffffffffffffffffffffffffffffffffffffffff16905090565b508054610f5990611873565b6000825580601f10610f6b5750610f8a565b601f016020900490600052602060002090810190610f89919061101a565b5b50565b828054610f9990611873565b90600052602060002090601f016020900481019282610fbb5760008555611009565b82601f10610fcc5780548555611009565b8280016001018555821561100957600052602060002091601f016020900482015b82811115611008578254825591600101919060010190610fed565b5b509050611016919061101a565b5090565b5b8082111561103357600081600090555060010161101b565b5090565b6000604051905090565b600080fd5b600080fd5b600080fd5b600080fd5b6000601f19601f8301169050919050565b7f4e487b7100000000000000000000000000000000000000000000000000000000600052604160045260246000fd5b61109e82611055565b810181811067ffffffffffffffff821117156110bd576110bc611066565b5b80604052505050565b60006110d0611037565b90506110dc8282611095565b919050565b600067ffffffffffffffff8211156110fc576110fb611066565b5b61110582611055565b9050602081019050919050565b82818337600083830152505050565b600061113461112f846110e1565b6110c6565b9050828152602081018484840111156111505761114f611050565b5b61115b848285611112565b509392505050565b600082601f8301126111785761117761104b565b5b8135611188848260208601611121565b91505092915050565b6000602082840312156111a7576111a6611041565b5b600082013567ffffffffffffffff8111156111c5576111c4611046565b5b6111d184828501611163565b91505092915050565b600073ffffffffffffffffffffffffffffffffffffffff82169050919050565b6000611205826111da565b9050919050565b611215816111fa565b811461122057600080fd5b50565b6000813590506112328161120c565b92915050565b6000819050919050565b61124b81611238565b811461125657600080fd5b50565b60008135905061126881611242565b92915050565b6000819050919050565b6112818161126e565b811461128c57600080fd5b50565b60008135905061129e81611278565b92915050565b6000806000606084860312156112bd576112bc611041565b5b60006112cb86828701611223565b93505060206112dc86828701611259565b92505060406112ed8682870161128f565b9150509250925092565b6113008161126e565b82525050565b600060208201905061131b60008301846112f7565b92915050565b61132a816111fa565b82525050565b60006020820190506113456000830184611321565b92915050565b600082825260208201905092915050565b7f4e6f2068746c6320666f72207769746864726177616c20666f756e6400000000600082015250565b6000611392601c8361134b565b915061139d8261135c565b602082019050919050565b600060208201905081810360008301526113c181611385565b9050919050565b7f54696d656f75742065786365656465642c207377617020697320696e76616c6960008201527f6400000000000000000000000000000000000000000000000000000000000000602082015250565b600061142460218361134b565b915061142f826113c8565b604082019050919050565b6000602082019050818103600083015261145381611417565b9050919050565b600081519050919050565b600081905092915050565b60005b8381101561148e578082015181840152602081019050611473565b8381111561149d576000848401525b50505050565b60006114ae8261145a565b6114b88185611465565b93506114c8818560208601611470565b80840191505092915050565b60006114e082846114a3565b915081905092915050565b7f5365637265742070726f766964656420697320696e636f727265637400000000600082015250565b6000611521601c8361134b565b915061152c826114eb565b602082019050919050565b6000602082019050818103600083015261155081611514565b9050919050565b7f53656e646572206d617070696e67206e6f742064656c65746564000000000000600082015250565b600061158d601a8361134b565b915061159882611557565b602082019050919050565b600060208201905081810360008301526115bc81611580565b9050919050565b7f5265636569766572206d617070696e67206e6f742064656c6574656400000000600082015250565b60006115f9601c8361134b565b9150611604826115c3565b602082019050919050565b60006020820190508181036000830152611628816115ec565b9050919050565b7f436f6e747261637420686173206e6f74206578636565642074696d656f75742060008201527f706572696f640000000000000000000000000000000000000000000000000000602082015250565b600061168b60268361134b565b91506116968261162f565b604082019050919050565b600060208201905081810360008301526116ba8161167e565b9050919050565b7f53656e646572206861766520616e206578697374696e672068746c6320636f6e60008201527f7472616374000000000000000000000000000000000000000000000000000000602082015250565b600061171d60258361134b565b9150611728826116c1565b604082019050919050565b6000602082019050818103600083015261174c81611710565b9050919050565b7f4e6f206574686572207265636569766564000000000000000000000000000000600082015250565b600061178960118361134b565b915061179482611753565b602082019050919050565b600060208201905081810360008301526117b88161177c565b9050919050565b7f4e487b7100000000000000000000000000000000000000000000000000000000600052601160045260246000fd5b60006117f98261126e565b91506118048361126e565b9250827fffffffffffffffffffffffffffffffffffffffffffffffffffffffffffffffff03821115611839576118386117bf565b5b828201905092915050565b7f4e487b7100000000000000000000000000000000000000000000000000000000600052602260045260246000fd5b6000600282049050600182168061188b57607f821691505b60208210810361189e5761189d611844565b5b50919050565b7f48746c6320696e69746961746564000000000000000000000000000000000000600082015250565b60006118da600e8361134b565b91506118e5826118a4565b602082019050919050565b60006020820190508181036000830152611909816118cd565b905091905056fea26469706673582212205c0ee798be37bc4b9f8be8a3090f50406cb3733d4283c03da9909c8b7c6737a464736f6c634300080d0033",
  "immutableReferences": {},
  "source": "// SPDX-License-Identifier: MIT\n\npragma solidity >=0.7.0 <0.9.0;\n\ncontract HtlcBond {\n\n    constructor() public {\n    }\n\n    mapping(address => address) senderToReceiver;\n    mapping(address => Htlc) receiveHtlc;\n\n    struct Htlc {\n        address sender;\n        address receiver;\n        bytes32 hash;\n        string secret;\n        uint256 timeout; // timeout time if secret has not been provided by then\n        uint256 price;\n    }\n\n    event initiateHtlc(string);\n    event withdrawAmount(uint256);\n\n    function createHtlc(address receiver, bytes32 hash, uint256 timeoutPeriod) public payable {\n        require(senderToReceiver[msg.sender] == address(0) , \"Sender have an existing htlc contract\");\n        require(msg.value > 0, \"No ether received\");\n\n        Htlc storage newHtlc = receiveHtlc[receiver];\n        newHtlc.sender = msg.sender;\n        newHtlc.receiver = receiver;\n        newHtlc.hash = hash;\n        newHtlc.timeout = block.timestamp + timeoutPeriod; \n        newHtlc.price = msg.value;\n\n        receiveHtlc[receiver] = newHtlc;\n        senderToReceiver[msg.sender] = receiver;\n        emit initiateHtlc(\"Htlc initiated\");\n    }\n\n    // but how to ensure that the hash in corda and eth is the same?\n    // receiver \n    function withdraw(string memory secret) public payable {\n        Htlc storage htlc = receiveHtlc[msg.sender];\n        require(htlc.sender != address(0), \"No htlc for withdrawal found\");\n\n        // verify timeout\n        require(block.timestamp < htlc.timeout, \"Timeout exceeded, swap is invalid\");\n\n        // verify secret\n        bytes32 encodedSecret = keccak256(abi.encodePacked(secret));\n        bytes32 hash = htlc.hash;\n        require(encodedSecret == hash, \"Secret provided is incorrect\");\n\n        // release ether\n        payable (msg.sender).transfer(htlc.price);\n\n        emit withdrawAmount(htlc.price);\n\n        // remove from mapping\n        delete senderToReceiver[htlc.sender];     \n        require(senderToReceiver[htlc.sender] == address(0), \"Sender mapping not deleted\");\n\n        delete receiveHtlc[msg.sender];\n        require(receiveHtlc[msg.sender].sender == address(0), \"Receiver mapping not deleted\");\n    }\n\n    function refund() public payable {\n        Htlc storage htlc = receiveHtlc[senderToReceiver[msg.sender]];\n        require(block.timestamp >= htlc.timeout, \"Contract has not exceed timeout period\");\n\n        payable (msg.sender).transfer(htlc.price);\n\n        // remove mapping from contract\n        delete senderToReceiver[msg.sender];     \n        require(senderToReceiver[msg.sender] == address(0), \"Sender mapping not deleted\");\n\n        delete receiveHtlc[htlc.receiver];\n        require(receiveHtlc[htlc.receiver].sender == address(0), \"Receiver mapping not deleted\");\n    }\n\n    function getContractBalance() public view returns(uint256) {\n        return address(this).balance;\n    }\n\n    function pendingPartyToWithdraw() public view returns(address) {\n        return senderToReceiver[msg.sender];\n    }\n\n    function pendingReceiveFrom() public view returns(address) {\n        return receiveHtlc[msg.sender].sender;\n    }\n}\n",
  "sourcePath": "/home/ruth/Documents/github/atomic-swap/backend/ethereum-app/contracts/HtlcBond.sol",
  "compiler": {
    "name": "solc",
    "version": "0.8.13+commit.abaa5c0e.Emscripten.clang"
  },
  "schemaVersion": "3.4.11",
  "updatedAt": "2022-12-29T03:50:15.954Z",
  "networkType": "ethereum",
  "devdoc": {
    "kind": "dev",
    "methods": {},
    "version": 1
  },
  "userdoc": {
    "kind": "user",
    "methods": {},
    "version": 1
  }
}